{
  "contractName": "InTheStars",
  "abi": [
    {
      "constant": false,
      "inputs": [],
      "name": "unpause",
      "outputs": [],
      "payable": false,
      "stateMutability": "nonpayable",
      "type": "function"
    },
    {
      "constant": true,
      "inputs": [],
      "name": "paused",
      "outputs": [
        {
          "name": "",
          "type": "bool"
        }
      ],
      "payable": false,
      "stateMutability": "view",
      "type": "function"
    },
    {
      "constant": false,
      "inputs": [],
      "name": "renounceOwnership",
      "outputs": [],
      "payable": false,
      "stateMutability": "nonpayable",
      "type": "function"
    },
    {
      "constant": false,
      "inputs": [],
      "name": "pause",
      "outputs": [],
      "payable": false,
      "stateMutability": "nonpayable",
      "type": "function"
    },
    {
      "constant": true,
      "inputs": [],
      "name": "owner",
      "outputs": [
        {
          "name": "",
          "type": "address"
        }
      ],
      "payable": false,
      "stateMutability": "view",
      "type": "function"
    },
    {
      "constant": false,
      "inputs": [
        {
          "name": "_newOwner",
          "type": "address"
        }
      ],
      "name": "transferOwnership",
      "outputs": [],
      "payable": false,
      "stateMutability": "nonpayable",
      "type": "function"
    },
    {
      "inputs": [],
      "payable": false,
      "stateMutability": "nonpayable",
      "type": "constructor"
    },
    {
      "anonymous": false,
      "inputs": [],
      "name": "Pause",
      "type": "event"
    },
    {
      "anonymous": false,
      "inputs": [],
      "name": "Unpause",
      "type": "event"
    },
    {
      "anonymous": false,
      "inputs": [
        {
          "indexed": true,
          "name": "previousOwner",
          "type": "address"
        }
      ],
      "name": "OwnershipRenounced",
      "type": "event"
    },
    {
      "anonymous": false,
      "inputs": [
        {
          "indexed": true,
          "name": "previousOwner",
          "type": "address"
        },
        {
          "indexed": true,
          "name": "newOwner",
          "type": "address"
        }
      ],
      "name": "OwnershipTransferred",
      "type": "event"
    },
    {
      "constant": false,
      "inputs": [
        {
          "name": "text",
          "type": "string"
        }
      ],
      "name": "saveText",
      "outputs": [
        {
          "name": "",
          "type": "bool"
        }
      ],
      "payable": false,
      "stateMutability": "nonpayable",
      "type": "function"
    },
    {
      "constant": true,
      "inputs": [
        {
          "name": "text",
          "type": "string"
        }
      ],
      "name": "checkText",
      "outputs": [
        {
          "name": "",
          "type": "address"
        }
      ],
      "payable": false,
      "stateMutability": "view",
      "type": "function"
    },
    {
      "constant": false,
      "inputs": [],
      "name": "kill",
      "outputs": [],
      "payable": false,
      "stateMutability": "nonpayable",
      "type": "function"
    }
  ],
  "bytecode": "0x608060405260008060146101000a81548160ff02191690831515021790555034801561002a57600080fd5b50336000806101000a81548173ffffffffffffffffffffffffffffffffffffffff021916908373ffffffffffffffffffffffffffffffffffffffff160217905550610a098061007a6000396000f300608060405260043610610099576000357c0100000000000000000000000000000000000000000000000000000000900463ffffffff16806318bda0281461009e5780633f4ba83a1461014757806341c0e1b51461015e5780635c975abb146101755780636d0f0fdc146101a4578063715018a6146102255780638456cb591461023c5780638da5cb5b14610253578063f2fde38b146102aa575b600080fd5b3480156100aa57600080fd5b50610105600480360381019080803590602001908201803590602001908080601f01602080910402602001604051908101604052809392919081815260200183838082843782019150505050505091929192905050506102ed565b604051808273ffffffffffffffffffffffffffffffffffffffff1673ffffffffffffffffffffffffffffffffffffffff16815260200191505060405180910390f35b34801561015357600080fd5b5061015c61030c565b005b34801561016a57600080fd5b506101736103ca565b005b34801561018157600080fd5b5061018a61045f565b604051808215151515815260200191505060405180910390f35b3480156101b057600080fd5b5061020b600480360381019080803590602001908201803590602001908080601f0160208091040260200160405190810160405280939291908181526020018383808284378201915050505050509192919290505050610472565b604051808215151515815260200191505060405180910390f35b34801561023157600080fd5b5061023a6104dc565b005b34801561024857600080fd5b506102516105de565b005b34801561025f57600080fd5b5061026861069e565b604051808273ffffffffffffffffffffffffffffffffffffffff1673ffffffffffffffffffffffffffffffffffffffff16815260200191505060405180910390f35b3480156102b657600080fd5b506102eb600480360381019080803573ffffffffffffffffffffffffffffffffffffffff1690602001909291905050506106c3565b005b6000806102f98361072a565b905061030481610841565b915050919050565b6000809054906101000a900473ffffffffffffffffffffffffffffffffffffffff1673ffffffffffffffffffffffffffffffffffffffff163373ffffffffffffffffffffffffffffffffffffffff1614151561036757600080fd5b600060149054906101000a900460ff16151561038257600080fd5b60008060146101000a81548160ff0219169083151502179055507f7805862f689e2f13df9f062ff482ad3ad112aca9e0847911ed832e158c525b3360405160405180910390a1565b6000809054906101000a900473ffffffffffffffffffffffffffffffffffffffff1673ffffffffffffffffffffffffffffffffffffffff163373ffffffffffffffffffffffffffffffffffffffff1614151561042557600080fd5b6000809054906101000a900473ffffffffffffffffffffffffffffffffffffffff1673ffffffffffffffffffffffffffffffffffffffff16ff5b600060149054906101000a900460ff1681565b600080600060149054906101000a900460ff1615151561049157600080fd5b61049a8361072a565b905060006104a782610841565b73ffffffffffffffffffffffffffffffffffffffff161415156104c957600080fd5b6104d281610886565b6001915050919050565b6000809054906101000a900473ffffffffffffffffffffffffffffffffffffffff1673ffffffffffffffffffffffffffffffffffffffff163373ffffffffffffffffffffffffffffffffffffffff1614151561053757600080fd5b6000809054906101000a900473ffffffffffffffffffffffffffffffffffffffff1673ffffffffffffffffffffffffffffffffffffffff167ff8df31144d9c2f0f6b59d69b8b98abd5459d07f2742c4df920b25aae33c6482060405160405180910390a260008060006101000a81548173ffffffffffffffffffffffffffffffffffffffff021916908373ffffffffffffffffffffffffffffffffffffffff160217905550565b6000809054906101000a900473ffffffffffffffffffffffffffffffffffffffff1673ffffffffffffffffffffffffffffffffffffffff163373ffffffffffffffffffffffffffffffffffffffff1614151561063957600080fd5b600060149054906101000a900460ff1615151561065557600080fd5b6001600060146101000a81548160ff0219169083151502179055507f6985a02210a168e66602d3235cb6db0e70f92b3ba4d376a33c0f3d9434bff62560405160405180910390a1565b6000809054906101000a900473ffffffffffffffffffffffffffffffffffffffff1681565b6000809054906101000a900473ffffffffffffffffffffffffffffffffffffffff1673ffffffffffffffffffffffffffffffffffffffff163373ffffffffffffffffffffffffffffffffffffffff1614151561071e57600080fd5b610727816108e3565b50565b60006002826040516020018082805190602001908083835b6020831015156107675780518252602082019150602081019050602083039250610742565b6001836020036101000a0380198251168184511680821785525050505050509050019150506040516020818303038152906040526040518082805190602001908083835b6020831015156107d057805182526020820191506020810190506020830392506107ab565b6001836020036101000a0380198251168184511680821785525050505050509050019150506020604051808303816000865af1158015610814573d6000803e3d6000fd5b5050506040513d602081101561082957600080fd5b81019080805190602001909291905050509050919050565b600060016000836000191660001916815260200190815260200160002060009054906101000a900473ffffffffffffffffffffffffffffffffffffffff169050919050565b3360016000836000191660001916815260200190815260200160002060006101000a81548173ffffffffffffffffffffffffffffffffffffffff021916908373ffffffffffffffffffffffffffffffffffffffff16021790555050565b600073ffffffffffffffffffffffffffffffffffffffff168173ffffffffffffffffffffffffffffffffffffffff161415151561091f57600080fd5b8073ffffffffffffffffffffffffffffffffffffffff166000809054906101000a900473ffffffffffffffffffffffffffffffffffffffff1673ffffffffffffffffffffffffffffffffffffffff167f8be0079c531659141344cd1fd0a4f28419497f9722a3daafe3b4186f6b6457e060405160405180910390a3806000806101000a81548173ffffffffffffffffffffffffffffffffffffffff021916908373ffffffffffffffffffffffffffffffffffffffff160217905550505600a165627a7a7230582074edc2f866310b6b6faa7e2b54f3d89a59de4e65c86a7ad3aa56c50b7b73a0810029",
  "source": "pragma solidity 0.4.24;\n\nimport 'zeppelin-solidity/contracts/ownership/Ownable.sol';\nimport 'zeppelin-solidity/contracts/lifecycle/Pausable.sol';\n\n/** @title InTheStars contract */\ncontract InTheStars is Ownable, Pausable {\n\n\t/** @dev mapping bytes to address and assigned to private variable texts */\n\tmapping (bytes32 => address) private texts;\n\n\t/** @dev nothing in constructor, owner is setting with Ownable */\n\tconstructor() public {\n\t}\n\n\t/** @dev checks a bytes32 array and assigns the text's owner \n     *  @param text bytes32 to be set\t\n\t */\n\tfunction storeText(bytes32 text) private {\n\t\ttexts[text] = msg.sender;\n\t}\n\n\t/** @dev checks a bytes32 array and return the owner's address of a item, if exists\n     *  @param text bytes32 to be searched\t\n\t *  @return texts[text] as address\n\t */\n\tfunction hasText(bytes32 text) private view returns (address) {\n\t\treturn texts[text];\n\t}\n\n\t/** @dev turns a string into sha256 encoded byte array\n     *  @param text string to be hashed\n\t *  @return sha256 encoded byte array\n\t */\n\tfunction textToHash(string text) private pure returns (bytes32) {\n\t\treturn sha256(abi.encodePacked(text));\n\t}\n\n\t/** @dev transform text in hash and save it\n\t *\tIs not possible to save a text if it was saved before.\n     *  @param text string to save\n\t *  @return true it success\n\t */\n\tfunction saveText(string text) public whenNotPaused returns (bool) {\n\t\tbytes32 textHash = textToHash(text);\n\t\trequire (hasText(textHash) == 0x0);\n\t\tstoreText(textHash);\n\t\treturn true;\n\t}\n\n\t/** @dev checks the text of a string and if it has been hashes returns owner's address \n     *  @param text bytes32 to be searched\t\n\t *  @return texts[text] as address\n\t */\t \n\tfunction checkText(string text) public view returns (address) {\n\t\tbytes32 textHash = textToHash(text);\n\t\treturn hasText(textHash);\n\t}\n\n    /** @dev only owner can destruct this contract */\n    function kill() public onlyOwner {\n\t     selfdestruct(owner);\n    }\n\n}\n",
  "sourcePath": "D:\\Blockchain\\Consensys\\InTheStars\\contracts\\InTheStars.sol",
  "compiler": {
    "name": "solc",
    "version": "0.4.24+commit.e67f0147.Emscripten.clang"
  },
  "schemaVersion": "2.0.1",
  "updatedAt": "2018-08-27T22:35:15.064Z"
}